:100000000C945E000C9486000C9486000C94860080
:100010000C9486000C9486000C9486000C94860048
:100020000C9486000C9486000C9486000C94860038
:100030000C9486000C9486000C9486000C94860028
:100040000C948B020C9486000C9459020C9433028D
:100050000C9486000C9486000C9486000C94860008
:100060000C9486000C9486000000000024002700F9
:100070002A0000000000250028002B0004040404CE
:100080000404040402020202020203030303030342
:10009000010204081020408001020408102001021F
:1000A00004081020000000080002010000030407FB
:1000B0000000000000000000D5028B0511241FBEC7
:1000C000CFEFD8E0DEBFCDBF21E0A0E3B1E001C0BB
:1000D0001D92A93EB207E1F711E0A0E0B1E0E6EA27
:1000E000F3E102C005900D92A033B107D9F710E0FB
:1000F000CDE5D0E004C02197FE010E94B407CC35C5
:10010000D107C9F70E944B030C94C6090C94000058
:10011000CF92DF92EF92FF920F931F93CF93DF93D3
:100120006C017A018B01C0E0D0E0CE15DF0589F0CB
:10013000D8016D918D01D601ED91FC910190F08176
:10014000E02DC6010995892B11F47E0102C021968C
:10015000ECCFC701DF91CF911F910F91FF90EF90EE
:10016000DF90CF900895089580E090E00895FC011D
:10017000538D448D252F30E0842F90E0821B930B0C
:10018000541710F0CF96089501970895FC01918DB2
:10019000828D981761F0828DDF01A80FB11D5D96E9
:1001A0008C91928D9F5F9F73928F90E008958FEF57
:1001B0009FEF0895FC01918D828D981731F0828D0B
:1001C000E80FF11D858D90E008958FEF9FEF089562
:1001D000FC01918D228D892F90E0805C9F4F821BC6
:1001E00091098F739927089582E491E00E94E800B5
:1001F00021E0892B09F420E0822F0895FC01848DF1
:10020000DF01A80FB11DA35ABF4F2C91848D90E040
:1002100001968F739927848FA689B7892C93A0891B
:10022000B1898C9180648C93938D848D981306C0D2
:100230000288F389E02D80818F7D80830895EF927D
:10024000FF920F931F93CF93DF93EC0181E0888F90
:100250009B8D8C8D981305C0E889F989808185FD77
:1002600024C0F62E0B8D10E00F5F1F4F0F73112768
:10027000E02E8C8DE8120CC00FB607FCFACFE8898F
:10028000F989808185FFF5CFCE010E94FE00F1CF74
:100290008B8DFE01E80FF11DE35AFF4FF0820B8FAB
:1002A000EA89FB898081806207C0EE89FF896083CB
:1002B000E889F98980818064808381E090E0DF9122
:1002C000CF911F910F91FF90EF900895CF93DF93FF
:1002D000EC01888D8823C9F0EA89FB89808185FD3E
:1002E00005C0A889B9898C9186FD0FC00FB607FC9F
:1002F000F5CF808185FFF2CFA889B9898C9185FFE0
:10030000EDCFCE010E94FE00E7CFDF91CF9108959F
:1003100080E090E0892B29F00E94F40081110C9478
:10032000000008953FB7F89480913501909136010F
:10033000A0913701B091380126B5A89B05C02F3F89
:1003400019F00196A11DB11D3FBFBA2FA92F982FFB
:100350008827820F911DA11DB11DBC01CD0142E076
:10036000660F771F881F991F4A95D1F70895009748
:1003700069F0FC0101900020E9F73197AF01481BBB
:10038000590BBC0182E491E00C94880080E090E07D
:1003900008958F929F92AF92BF920F931F93CF9326
:1003A000DF93CDB7DEB7A1970FB6F894DEBF0FBECF
:1003B000CDBF19A2423008F44AE08E010F5D1F4FF5
:1003C000842E912CA12CB12CA50194010E9492079E
:1003D000E62FB901CA0101501109EA3014F4E05DB9
:1003E00001C0E95CD801EC93232B242B252B61F76A
:1003F000C8010E94B701A1960FB6F894DEBF0FBEE8
:10040000CDBFDF91CF911F910F91BF90AF909F9083
:100410008F9008950E94B1090F931F93CF93DF939C
:10042000EC0188819981009729F02A813B81261768
:10043000370788F48B016F5F7F4F0E94E7080097B2
:1004400061F0998388831B830A832C813D81232B50
:1004500011F4FC01108281E001C080E0DF91CF91B6
:100460001F910F9108951F920F920FB60F921124B2
:100470002F933F934F935F936F937F938F939F93AC
:10048000AF93BF93EF93FF9382E491E00E94FE004D
:10049000FF91EF91BF91AF919F918F917F916F915C
:1004A0005F914F913F912F910F900FBE0F901F9032
:1004B00018951F920F920FB60F9211242F938F93BE
:1004C0009F93EF93FF93E0915201F091530180814C
:1004D000E0915801F091590182FD12C09081809104
:1004E0005B018F5F8F7320915C01821751F0E09167
:1004F0005B01F0E0EE5BFE4F958F80935B0101C0E6
:100500008081FF91EF919F918F912F910F900FBE5E
:100510000F901F9018951F920F920FB60F921124F3
:100520002F933F938F939F93AF93BF93809131010C
:1005300090913201A0913301B0913401309130019A
:1005400023E0230F2D3720F40196A11DB11D05C016
:1005500026E8230F0296A11DB11D20933001809340
:10056000310190933201A0933301B0933401809113
:10057000350190913601A0913701B0913801019673
:10058000A11DB11D8093350190933601A0933701D1
:10059000B0933801BF91AF919F918F913F912F916F
:1005A0000F900FBE0F901F9018951092450110925A
:1005B000440188EE93E0A0E0B0E080934601909380
:1005C0004701A0934801B09349018AE091E09093DC
:1005D00043018093420185EC90E090934F0180931A
:1005E0004E0184EC90E0909351018093500180EC97
:1005F00090E0909353018093520181EC90E09093AE
:1006000055018093540182EC90E0909357018093C0
:10061000560186EC90E09093590180935801109216
:100620005B0110925C0110925D0110925E011092CC
:10063000E0011092DF011092E2011092E1011092AC
:10064000E4011092E30160E070E08FED91E00E9420
:100650000C022091DF013091E001811113C02115BE
:10066000310519F0C9010E944F081092E001109263
:10067000DF011092E4011092E3011092E201109266
:10068000E10108951092E4011092E30163E271E048
:10069000C9010C94BF09CF93DF9300D0CDB7DEB76B
:1006A000789484B5826084BD84B5816084BD85B54D
:1006B000826085BD85B5816085BD80916E00816059
:1006C00080936E00109281008091810082608093FF
:1006D0008100809181008160809381008091800001
:1006E0008160809380008091B10084608093B1002C
:1006F0008091B00081608093B00080917A00846026
:1007000080937A0080917A00826080937A00809151
:100710007A00816080937A0080917A00806880936B
:100720007A001092C100E0915201F091530182E0F1
:100730008083E0914E01F0914F011082E0915001D1
:10074000F09151018FEC808310925A01E091560193
:10075000F091570186E08083E0915401F0915501BA
:10076000808180618083E0915401F0915501808106
:1007700088608083E0915401F09155018081806808
:100780008083E0915401F091550180818F7D8083B9
:1007900068EC70E08FED91E00E940C0243E9242E9A
:1007A00040E0342EF10124910FE710E0F80184912C
:1007B000882399F090E0880F991FFC01E859FF4FBA
:1007C000A591B491FC01EE58FF4F859194918FB79C
:1007D000F8949C91292B2C938FBF82E491E00E9486
:1007E000E800181619060CF093C182E491E00E940B
:1007F000C600D82E8093410189831A82E090E301DC
:10080000F090E401FFEFEF1AFF0AB7018FED91E0DE
:100810000E940C02882399F02091DF013091E001C1
:100820008091E3019091E401BE016F5F7F4F820FE1
:10083000931F0E94BF09F092E401E092E30125E6D4
:10084000D21240C0E7EAF0E08491F1019491F801FE
:1008500024912223B9F1882339F1833091F038F4BF
:100860008130A9F0823001F584B58F7D12C08730C8
:1008700091F08830A1F08430B9F4809180008F7DB0
:1008800003C0809180008F77809380000DC084B575
:100890008F7784BD09C08091B0008F7703C08091AD
:1008A000B0008F7D8093B000E22FF0E0EE0FFF1FCD
:1008B000EE58FF4FA591B4918FB7F8942C91922BDD
:1008C0009C938FBF88E191E00E94B7014091E301C2
:1008D0005091E4016091DF017091E00182E491E0C8
:1008E0000E94880081E291E00E94B701F0E4F09359
:1008F0007C0080917A00806480937A0080917A00F5
:1009000086FDFCCF609178008091790070E0782BB3
:10091000072E000C880B990B0E9498052FEF3FEFD4
:100920004FE95BE30E94F70520E030E048EC52E439
:100930000E94F70560933D0170933E0180933F0153
:100940009093400123E333E948E853E40E94EC0626
:100950006B017C014B015C016093390170933A019A
:1009600080933B0190933C019B01AC010E948D0759
:10097000882319F084E291E01AC026013701E89437
:1009800077F82FEF3FEF4FE75FE7C301B2010E9417
:100990008D0781110FC02FEF3FEF4FE75FE7C301D6
:1009A000B2010E94910518162CF488E291E00E9491
:1009B000B70184C02FEF3FEF4FE75FE4C701B601F7
:1009C0000E94880718161CF48CE291E0F0CF2FEFFC
:1009D0003FEF4FE75FECC701B6010E94910587FD2D
:1009E000F3CF20E030E0A901C701B6010E949105D4
:1009F00087FF11C0E0914201F09143010190F08125
:100A0000E02D6DE282E491E0099546015701B7FAC5
:100A1000B094B7F8B0942AE037ED43EA5BE3C50140
:100A2000B4010E94ED064B015C010E9459076B0165
:100A30007C010E9496059B01AC01C501B4010E9496
:100A4000EC064B015C014AE0C701B6010E94C901F6
:100A5000E0914201F09143010190F081E02D6EE2BE
:100A600082E491E0099520E030E040E251E4C501E4
:100A7000B4010E94F7054B015C010E9459076B010C
:100A8000E12CF12C4AE0C701B6010E94C901C7015F
:100A9000B6010E9496059B01AC01C501B4010E94FC
:100AA000EC0620E030E040E251E40E94F7050E94AD
:100AB000590780E090E04AE00E94C90181E291E09C
:100AC0000E94B7010E9492014B015C0184E6C82E8E
:100AD000D12CE12CF12C0E949201DC01CB01881970
:100AE0009909AA09BB09883E9340A105B10558F0B0
:100AF00021E0C21AD108E108F10888EE880E83E0EF
:100B0000981EA11CB11CC114D104E104F10419F711
:100B10000E94880162CE8091DF019091E0010C94E7
:100B20004F080E94D30508F481E00895E89409C0B5
:100B300097FB3EF490958095709561957F4F8F4F10
:100B40009F4F9923A9F0F92F96E9BB279395F69526
:100B5000879577956795B795F111F8CFFAF4BB0FA4
:100B600011F460FF1BC06F5F7F4F8F4F9F4F16C008
:100B7000882311F096E911C0772321F09EE8872F92
:100B8000762F05C0662371F096E8862F70E060E04E
:100B90002AF09A95660F771F881FDAF7880F9695C7
:100BA000879597F90895990F0008550FAA0BE0E86B
:100BB000FEEF16161706E807F907C0F0121613061F
:100BC000E407F50798F0621B730B840B950B39F45F
:100BD0000A2661F0232B242B252B21F408950A26C5
:100BE00009F4A140A6958FEF811D811D08950E94F3
:100BF0000A060C947B060E946D0638F00E9474066B
:100C000020F0952311F00C9464060C946A061124CC
:100C10000C94AF060E948C0670F3959FC1F3950F5C
:100C200050E0551F629FF001729FBB27F00DB11D70
:100C3000639FAA27F00DB11DAA1F649F6627B00D00
:100C4000A11D661F829F2227B00DA11D621F739FE9
:100C5000B00DA11D621F839FA00D611D221F749FF7
:100C60003327A00D611D231F849F600D211D822F3E
:100C7000762F6A2F11249F5750409AF0F1F0882365
:100C80004AF0EE0FFF1FBB1F661F771F881F915092
:100C90005040A9F79E3F510580F00C9464060C94D7
:100CA000AF065F3FE4F3983ED4F38695779567955A
:100CB000B795F795E7959F5FC1F7FE2B880F911DBC
:100CC0009695879597F9089597F99F6780E870E062
:100CD00060E008959FEF80EC089500240A941616B2
:100CE000170618060906089500240A94121613061A
:100CF000140605060895092E0394000C11F48823A8
:100D000052F0BB0F40F4BF2B11F460FF04C06F5FC3
:100D10007F4F8F4F9F4F089557FD9058440F551F99
:100D200059F05F3F71F04795880F97FB991F61F06D
:100D30009F3F79F087950895121613061406551FE4
:100D4000F2CF4695F1DF08C0161617061806991F50
:100D5000F1CF86957105610508940895E894BB2745
:100D600066277727CB0197F908952F923F924F92EC
:100D70005F926F927F928F929F92AF92BF92CF922B
:100D8000DF92EF92FF920F931F93CF93DF93CDB734
:100D9000DEB7CA1BDB0B0FB6F894DEBF0FBECDBFAC
:100DA00009942A88398848885F846E847D848C847D
:100DB0009B84AA84B984C884DF80EE80FD800C8186
:100DC0001B81AA81B981CE0FD11D0FB6F894DEBF69
:100DD0000FBECDBFED0108955058BB27AA270E9432
:100DE00004070C947B060E946D0638F00E9474067E
:100DF00020F039F49F3F19F426F40C946A060EF49F
:100E0000E095E7FB0C946406E92F0E948C0658F3EA
:100E1000BA17620773078407950720F079F4A6F5DF
:100E20000C94AE060EF4E0950B2EBA2FA02D0B01FC
:100E3000B90190010C01CA01A0011124FF27591B1F
:100E400099F0593F50F4503E68F11A16F040A22F25
:100E5000232F342F4427585FF3CF46953795279596
:100E6000A795F0405395C9F77EF41F16BA0B620B95
:100E7000730B840BBAF09150A1F0FF0FBB1F661FDC
:100E8000771F881FC2F70EC0BA0F621F731F841F1F
:100E900048F4879577956795B795F7959E3F08F045
:100EA000B0CF9395880F08F09927EE0F9795879507
:100EB00008950E94940688F09F5798F0B92F9927BB
:100EC000B751B0F0E1F0660F771F881F991F1AF035
:100ED000BA95C9F714C0B13091F00E94AE06B1E0E6
:100EE00008950C94AE06672F782F8827B85F39F0E5
:100EF000B93FCCF3869577956795B395D9F73EF4CE
:100F000090958095709561957F4F8F4F9F4F089575
:100F10000E94D30508F48FEF08950E94D305880B33
:100F2000990B0895A1E21A2EAA1BBB1BFD010DC04F
:100F3000AA1FBB1FEE1FFF1FA217B307E407F50789
:100F400020F0A21BB30BE40BF50B661F771F881F65
:100F5000991F1A9469F760957095809590959B01FB
:100F6000AC01BD01CF010895EE0FFF1F0590F49174
:100F7000E02D0994CF93DF938230910510F482E045
:100F800090E0E091E701F091E80120E030E0C0E07E
:100F9000D0E0309711F14081518148175907C0F0D6
:100FA0004817590761F482819381209719F09B8338
:100FB0008A832BC09093E8018093E70126C0211516
:100FC000310519F04217530718F49A01BE01DF01E9
:100FD000EF010280F381E02DDCCF2115310509F10D
:100FE000281B390B2430310590F412968D919C9179
:100FF00013976115710521F0FB019383828304C06F
:101000009093E8018093E701FD01329644C0FD0111
:10101000E20FF31F81939193225031092D933C935A
:101020003AC02091E5013091E601232B41F4209153
:101030000201309103013093E6012093E5012091F4
:101040000001309101012115310541F42DB73EB762
:101050004091040150910501241B350BE091E501FD
:10106000F091E601E217F307A0F42E1B3F0B2817BF
:10107000390778F0AC014E5F5F4F2417350748F011
:101080004E0F5F1F5093E6014093E50181939193CA
:1010900002C0E0E0F0E0CF01DF91CF9108950F931F
:1010A0001F93CF93DF93009709F48CC0FC01329714
:1010B000138212820091E7011091E80101151105D8
:1010C00081F420813181820F931F2091E5013091BD
:1010D000E6012817390779F5F093E601E093E50179
:1010E00071C0D80140E050E0AE17BF0750F412962F
:1010F0002D913C911397AD012115310509F1D901CD
:10110000F3CF9D01DA013383228360817181860FE1
:10111000971F8217930769F4EC0128813981260F04
:10112000371F2E5F3F4F318320838A819B819383BA
:101130008283452B29F4F093E801E093E70142C054
:101140001396FC93EE931297ED01499159919E01EC
:10115000240F351FE217F30771F480819181840F0A
:10116000951F029611969C938E938281938113967C
:101170009C938E931297E0E0F0E0D80112968D9147
:101180009C911397009719F0F8018C01F6CF8D917F
:101190009C9198012E5F3F4F820F931F2091E50194
:1011A0003091E6012817390769F4309729F4109235
:1011B000E8011092E70102C0138212821093E60147
:1011C0000093E501DF91CF911F910F910895A0E069
:1011D000B0E0EDEEF8E00C94B906EC01009721F4D4
:1011E000CB010E94BA07B8C0FC01E60FF71F9C01B3
:1011F00022503109E217F30708F4ACC0D9010D9170
:101200001C91119706171707B0F00530110508F467
:101210009FC0C80104978617970708F499C0025029
:101220001109061B170B019311936D937C93CF014A
:101230000E944F088DC05B01A01AB10A4C01800EBC
:10124000911EA091E701B091E80140E050E0E12C4F
:10125000F12C109709F44AC0A815B905D1F56D9085
:101260007C901197630182E0C80ED11CCA14DB0484
:1012700080F1A3014A195B096A0182E0C80ED11C02
:101280001296BC9012971396AC91B5E0CB16D10490
:1012900040F0B282A38351834083D9016D937C9344
:1012A0000AC00E5F1F4FC301800F911FF901918388
:1012B0008083EB2DFA2FE114F10431F0D70113965E
:1012C000FC93EE93129744C0F093E801E093E7019A
:1012D0003FC08D919C9111974817590708F4AC01B4
:1012E0007D0112960D90BC91A02DB3CF8091E501A8
:1012F0009091E60188159905E1F446175707C8F45F
:101300008091000190910101009741F48DB79EB743
:101310004091040150910501841B950BE817F907D2
:10132000C8F4F093E601E093E501F901718360836D
:101330000FC0CB010E94BA077C01009759F0A801A9
:10134000BE010E94B609CE010E944F08C70104C029
:10135000CE0102C080E090E0CDB7DEB7EEE00C94A5
:10136000D50681E090E0F8940C94C609FB01DC01FD
:1013700002C001900D9241505040D8F70895FB01F2
:10138000DC0101900D920020E1F7089510E0CDE519
:10139000D0E004C0FE010E94B4072196CE35D107EB
:0613A000C9F7F894FFCF2D
:1013A6000000E9018000000000001F018800B7006E
:1013B6006601E800C600DA00717565206D6B646130
:1013C600000D0A006E616E00696E66006F7666003B
:00000001FF
